:100000000C945D000C9485000C9485000C94850084
:100010000C9485000C9485000C9485000C9485004C
:100020000C9485000C9485000C9485000C94CF01F1
:100030000C9485000C9485000C9485000C9485002C
:100040000C9485010C9485000C9485000C9485001B
:100050000C9485000C9485000C9485000C9485000C
:100060000C9485000C9485000000000024002700FB
:100070002A0000000000250028002B0004040404CE
:100080000404040402020202020203030303030342
:10009000010204081020408001020408102001021F
:1000A00004081020000000080002010000030407FB
:1000B00000000000000000001E0311241FBECFEF4F
:1000C000D8E0DEBFCDBF11E0A0E0B1E0E4E8F6E0AB
:1000D00002C005900D92A030B107D9F721E0A0E051
:1000E000B1E001C01D92AB33B207E1F710E0CDE5FE
:1000F000D0E004C02197FE010E943A03CC35D1071D
:10010000C9F70E94AC020C9440030C940000BC019F
:10011000909114019C3098F58091150128E830E009
:10012000281B310987FD3395220F331F220F331F00
:10013000621773078CF08091160148E552E0481B66
:10014000510987FD5395440F551F440F551F9B01BF
:10015000461757070CF49A0122503109220F331F1A
:100160004FB7F894892F90E0FC01EE0FFF1F8E0F20
:100170009F1FFC01E95EFE4F328321834FBF08952C
:1001800090E0FC01EC55FF4F2491FC01E057FF4F3C
:100190003491FC01E458FF4FE491EE2309F43CC094
:1001A000222339F1233091F038F42130A9F02230A4
:1001B00001F584B58F7D12C0273091F02830A1F071
:1001C0002430B9F4809180008F7D03C0809180003D
:1001D0008F77809380000DC084B58F7784BD09C070
:1001E0008091B0008F7703C08091B0008F7D8093A5
:1001F000B000F0E0EE0FFF1FEE58FF4FA591B49155
:100200009FB7F894611104C08C913095382302C0D7
:10021000EC913E2B3C939FBF0895CF93DF93DC017D
:100220008C918C3008F06DC0CB019927FC01E05710
:10023000FF4F2491FC01E458FF4F8491882399F0EB
:1002400090E0880F991FFC01E859FF4FC591D491A8
:10025000FC01EE58FF4F859194918FB7F894E88197
:10026000E22BE8838FBF8C91E82FF0E09F01220FF3
:10027000331FE20FF31FE95EFE4F6F739081907C96
:10028000692B608311961C92119712961C921297FB
:100290006CE00E942E039CE0899FB001112440E095
:1002A00050E09B01240F351FF901EE0FFF1F2E0FA9
:1002B0003F1FF901E95EFE4F908196FD16C04F5F2A
:1002C0005F4F4C30510569F781110FC010928000CB
:1002D00082E0809381001092850010928400B19A90
:1002E00080916F00826080936F00EC91F0E0CF010D
:1002F000880F991FE80FF91FE95EFE4F8081806427
:1003000080838C91DF91CF9108951F920F920FB649
:100310000F9211242F933F938F939F93AF93BF938B
:100320008091100190911101A0911201B0911301DF
:1003300030910F0123E0230F2D3720F40196A11DEA
:10034000B11D05C026E8230F0296A11DB11D209303
:100350000F018093100190931101A0931201B093AB
:10036000130180910B0190910C01A0910D01B091AE
:100370000E010196A11DB11D80930B0190930C01FC
:10038000A0930D01B0930E01BF91AF919F918F91FA
:100390003F912F910F900FBE0F901F9018951F92B5
:1003A0000F920FB60F9211242F933F934F935F93A9
:1003B0006F937F938F939F93AF93BF93EF93FF932D
:1003C0008091000187FF05C0109285001092840083
:1003D0001BC020910001022E000C330B8091010103
:1003E00090E02817390784F480910001082E000C52
:1003F000990BFC01EE0FFF1F8E0F9F1FFC01E95EA2
:10040000FE4F808186FD15C0809100018F5F809333
:10041000000120910001022E000C330B809101019C
:1004200090E028173907C4F4809100018C3064F102
:1004300013C080910001082E000C990BFC01EE0FF7
:10044000FF1F8E0F9F1FFC01E95EFE4F808160E061
:100450008F730E94C000D8CF809184009091850056
:10046000049680349C4918F480E49CE905C080918E
:100470008400909185000496909389008093880071
:100480008FEF809300013BC0209184003091850064
:1004900080910001082E000C990BFC01EE0FFF1F4C
:1004A0008E0F9F1FFC01E95EFE4F81819281820FBA
:1004B000931F909389008093880080910001082EFB
:1004C000000C990BFC01EE0FFF1F8E0F9F1FFC010C
:1004D000E95EFE4F808186FF12C080910001082EE8
:1004E000000C990BFC01EE0FFF1F8E0F9F1FFC01EC
:1004F000E95EFE4F808161E08F730E94C000FF9132
:10050000EF91BF91AF919F918F917F916F915F918B
:100510004F913F912F910F900FBE0F901F90189504
:10052000FC01909101019C30A0F481E0890F80933F
:1005300001019083892F90E0FC01EE0FFF1F8E0FC9
:100540009F1FFC01E95EFE4F88EB9BE09283818355
:1005500008958FEF80830895789484B5826084BD78
:1005600084B5816084BD85B5826085BD85B58160B7
:1005700085BD80916E00816080936E001092810035
:1005800080918100826080938100809181008160F0
:1005900080938100809180008160809380008091B1
:1005A000B10084608093B1008091B000816080933D
:1005B000B00080917A00846080937A0080917A0004
:1005C000826080937A0080917A00816080937A00C3
:1005D00080917A00806880937A001092C10069E06F
:1005E00070E084E191E00E940D016BE070E088E032
:1005F00091E00E940D0163E070E085E091E00E94CF
:100600000D016AE070E082E091E00E940D01C0E01F
:10061000D0E08CED95E00E9487008CED95E00E9483
:1006200087008CED95E00E9487008CED95E00E949C
:100630008700209771F30E940000EBCF84E191E0E6
:100640000E94900288E091E00E94900285E091E093
:100650000E94900282E091E00C949002991B79E054
:1006600004C0991F961708F0961B881F7A95C9F742
:1006700080950895EE0FFF1F0590F491E02D0994E9
:04068000F894FFCF1C
:00000001FF
